{
  "_format": "hh-sol-artifact-1",
  "contractName": "IdeaPortal",
  "sourceName": "contracts/IdeaPortal.sol",
  "abi": [
    {
      "inputs": [],
      "stateMutability": "nonpayable",
      "type": "constructor"
    },
    {
      "inputs": [],
      "name": "getTotalIdeas",
      "outputs": [
        {
          "internalType": "uint256",
          "name": "",
          "type": "uint256"
        }
      ],
      "stateMutability": "view",
      "type": "function"
    },
    {
      "inputs": [
        {
          "internalType": "string",
          "name": "userIdea",
          "type": "string"
        }
      ],
      "name": "idea",
      "outputs": [],
      "stateMutability": "nonpayable",
      "type": "function"
    }
  ],
  "bytecode": "0x608060405234801561001057600080fd5b506100596040518060400160405280601381526020017f496d6d6120736d61727420636f6e74726163740000000000000000000000000081525061005e60201b6101eb1760201c565b6101e1565b6100fa81604051602401610072919061015f565b6040516020818303038152906040527f41304fac000000000000000000000000000000000000000000000000000000007bffffffffffffffffffffffffffffffffffffffffffffffffffffffff19166020820180517bffffffffffffffffffffffffffffffffffffffffffffffffffffffff83818316178352505050506100fd60201b60201c565b50565b60008151905060006a636f6e736f6c652e6c6f679050602083016000808483855afa5050505050565b600061013182610181565b61013b818561018c565b935061014b81856020860161019d565b610154816101d0565b840191505092915050565b600060208201905081810360008301526101798184610126565b905092915050565b600081519050919050565b600082825260208201905092915050565b60005b838110156101bb5780820151818401526020810190506101a0565b838111156101ca576000848401525b50505050565b6000601f19601f8301169050919050565b6108d2806101f06000396000f3fe608060405234801561001057600080fd5b50600436106100365760003560e01c8063115a4bac1461003b5780631172a2c814610059575b600080fd5b610043610075565b604051610050919061063a565b60405180910390f35b610073600480360381019061006e91906104f6565b610116565b005b600061010e6040518060400160405280601181526020017f77652068617665202564206964656125730000000000000000000000000000008152506000546001600054146100f8576040518060400160405280600181526020017f7300000000000000000000000000000000000000000000000000000000000000815250610109565b604051806020016040528060008152505b610284565b600054905090565b600160008082825461012891906106c7565b92505081905550600160003373ffffffffffffffffffffffffffffffffffffffff1673ffffffffffffffffffffffffffffffffffffffff168152602001908152602001600020819080600181540180825580915050600190039060005260206000200160009091909190915090805190602001906101a79291906103eb565b506101e86040518060400160405280601981526020017f2573206861732073686172656420616e20696465613a202573000000000000008152503383610323565b50565b610281816040516024016101ff919061058e565b6040516020818303038152906040527f41304fac000000000000000000000000000000000000000000000000000000007bffffffffffffffffffffffffffffffffffffffffffffffffffffffff19166020820180517bffffffffffffffffffffffffffffffffffffffffffffffffffffffff83818316178352505050506103c2565b50565b61031e83838360405160240161029c939291906105f5565b6040516020818303038152906040527fa3f5c739000000000000000000000000000000000000000000000000000000007bffffffffffffffffffffffffffffffffffffffffffffffffffffffff19166020820180517bffffffffffffffffffffffffffffffffffffffffffffffffffffffff83818316178352505050506103c2565b505050565b6103bd83838360405160240161033b939291906105b0565b6040516020818303038152906040527fe0e9ad4f000000000000000000000000000000000000000000000000000000007bffffffffffffffffffffffffffffffffffffffffffffffffffffffff19166020820180517bffffffffffffffffffffffffffffffffffffffffffffffffffffffff83818316178352505050506103c2565b505050565b60008151905060006a636f6e736f6c652e6c6f679050602083016000808483855afa5050505050565b8280546103f79061079b565b90600052602060002090601f0160209004810192826104195760008555610460565b82601f1061043257805160ff1916838001178555610460565b82800160010185558215610460579182015b8281111561045f578251825591602001919060010190610444565b5b50905061046d9190610471565b5090565b5b8082111561048a576000816000905550600101610472565b5090565b60006104a161049c8461067a565b610655565b9050828152602081018484840111156104b957600080fd5b6104c4848285610759565b509392505050565b600082601f8301126104dd57600080fd5b81356104ed84826020860161048e565b91505092915050565b60006020828403121561050857600080fd5b600082013567ffffffffffffffff81111561052257600080fd5b61052e848285016104cc565b91505092915050565b6105408161071d565b82525050565b6000610551826106ab565b61055b81856106b6565b935061056b818560208601610768565b6105748161088b565b840191505092915050565b6105888161074f565b82525050565b600060208201905081810360008301526105a88184610546565b905092915050565b600060608201905081810360008301526105ca8186610546565b90506105d96020830185610537565b81810360408301526105eb8184610546565b9050949350505050565b6000606082019050818103600083015261060f8186610546565b905061061e602083018561057f565b81810360408301526106308184610546565b9050949350505050565b600060208201905061064f600083018461057f565b92915050565b600061065f610670565b905061066b82826107cd565b919050565b6000604051905090565b600067ffffffffffffffff8211156106955761069461085c565b5b61069e8261088b565b9050602081019050919050565b600081519050919050565b600082825260208201905092915050565b60006106d28261074f565b91506106dd8361074f565b9250827fffffffffffffffffffffffffffffffffffffffffffffffffffffffffffffffff03821115610712576107116107fe565b5b828201905092915050565b60006107288261072f565b9050919050565b600073ffffffffffffffffffffffffffffffffffffffff82169050919050565b6000819050919050565b82818337600083830152505050565b60005b8381101561078657808201518184015260208101905061076b565b83811115610795576000848401525b50505050565b600060028204905060018216806107b357607f821691505b602082108114156107c7576107c661082d565b5b50919050565b6107d68261088b565b810181811067ffffffffffffffff821117156107f5576107f461085c565b5b80604052505050565b7f4e487b7100000000000000000000000000000000000000000000000000000000600052601160045260246000fd5b7f4e487b7100000000000000000000000000000000000000000000000000000000600052602260045260246000fd5b7f4e487b7100000000000000000000000000000000000000000000000000000000600052604160045260246000fd5b6000601f19601f830116905091905056fea26469706673582212205237a78fc236e232ecfbbf47ea0f161ec647b47a14f6f0e6622de1f4540416a664736f6c63430008040033",
  "linkReferences": {},
  "deployedLinkReferences": {}
}